:020000040000FA
:0600000086EF0AF0120079
:0608000086EF0AF0120071
:06080800EDEF08F0120004
:06081800EDEF08F01200F4
:02082A000000CC
:04082C009AD8C4D8BA
:1008300082AC87D00001616B626B636B646B60514B
:10084000030B01E1CCD800016051030B010809E161
:100850008B920F0EE66ED2D8E552050EE66ECED81C
:10086000E55200016051030B020802E18B925AD954
:1008700000016051030B030864E18B82853504E2BB
:100880008451F408010E855506E2782B000E792379
:100890007A237B2304D0786B796B7A6B7B6B8735FB
:1008A00004E28651F408010E875506E27C2B000E07
:1008B0007D237E237F2304D07C6B7D6B7E6B7F6BDF
:1008C000640E781905E1795103E17A5101E17B5118
:1008D00007E1786B796B7A6B7B6B802B000E812341
:1008E000640E7C1905E17D5103E17E5101E17F51E8
:1008F00007E17C6B7D6B7E6B7F6B822B000E83230D
:100900007351000811E20E0E735D0EE28051825D9C
:10091000006E83518155016E070E0024736F73C002
:10092000E6FF6CD8E5520DD00E0E735D04E10E0E9D
:10093000E66E64D8E5520001735103E1E66A5ED8C1
:10094000E5524AEC08F089C084F08AC085F08BC07B
:1009500086F08CC087F0E7EC08F0E7EC08F067D78A
:10096000120094928B929480938093988A98939A91
:100970008A9A939C8A9C0001606B616B626B636BCB
:10098000646B070E716F706B726B676B686B736F64
:10099000746B756B766B776B846B856B866B876B13
:1009A000806B816B826B836B656B6B6B6C6B6D6B40
:1009B000E1EC08F039EF08F082BC10D00001612BA7
:1009C000000E6223632364231E0E611905E1625148
:1009D00003E1635101E1645101E1602B12008A9C43
:1009E000E7EC08F00001706B080E705D05E28A9874
:1009F0008A9A8A88702BF8D78A8C1200D9CFE6FFA2
:100A0000E1CFD9FF8A9CE7EC08F00001706B080E7B
:100A1000705D37E28A98140E036E130E046E000E9A
:100A2000056EFE0EDBCF06F0076A086A030ED8904B
:100A3000063607360836E806FAE103500624006E4B
:100A400004500720016E05500820026E70C009F0A6
:100A50000A6A0B6A00500924F36E01500A20F46EF2
:100A600002500B20F86EF4CFF7FFF3CFF6FF08002B
:100A7000F550E8B08A8AE8A08A9A8A880001702B2B
:100A8000C6D78A8CE552E7CFD9FF1200D9CFE6FF4F
:100A9000E1CFD9FF080EE126DF6A010EDB6A020E04
:100AA000DB6A010EF36E030EF3CFDBFF010EF36E74
:100AB000040EF3CFDBFF010EF36E050EF3CFDBFF69
:100AC000010EF36E060EF3CFDBFF010EF36E070E81
:100AD000F3CFDBFF8A9CE7EC08F00001706B080E97
:100AE000705D15E28A98D9CF00F0DACF01F070512D
:100AF0000F010024E96E000E0120EA6EEF50E8B00D
:100B00008A8AE8A08A9A8A880001702BE8D78A8CA2
:100B1000080EE15C02E2E16AE552E16EE552E7CFE0
:100B2000D9FF120000016751681107E1725101E11C
:100B3000ADDF0001720501E152DFE80E0001671927
:100B400002E1030E681908E1676B686B722B725142
:100B5000010801E2726B03D0672B000E68231200BC
:100B6000D9CFE6FFE1CFD9FF020EE126DE6ADD6ACA
:100B70004AEC08F0D950FD0FE96EFF0EDA20EA6E5C
:100B8000010EEE1801E1ED501CE18BC0DEFF8CC0C0
:100B9000DDFFDECF00F0DDCF01F0013404E20050D4
:100BA000FF08010E015405E2010E0001746F756B20
:100BB00003D00001746B756B74C0F3FF75C0F4FF54
:100BC00027D0D950FD0FE96EFF0EDA20EA6E020E33
:100BD000EE1801E1ED501CE18DC0DEFF8EC0DDFF9F
:100BE000DECF00F0DDCF01F0013404E20050FF0859
:100BF000010E015405E2010E0001766F776B03D000
:100C00000001766B776B76C0F3FF77C0F4FF00D0FE
:100C1000020EE15C02E2E16AE552E16EE552E7CFE5
:100C2000D9FF12004B0E00016DAF02D0D89003D057
:100C30006C5D000E6D5904E2050E6E6F6F6B50D047
:100C40007D0E6DAF02D0D89003D06C5D000E6D5953
:100C500004E20A0E6E6F6F6B43D0C80E6DAF02D008
:100C6000D89003D06C5D000E6D5904E20F0E6E6FCC
:100C70006F6B36D0FA0E6DAF02D0D89003D06C5D9A
:100C8000000E6D5904E2030E6E6F6F6B29D07D0E5E
:100C90006DAF02D0D89003D06C5D000E6D5904E2A8
:100CA000050E6E6F6F6B1CD0C80E6DAF02D0D89062
:100CB00003D06C5D000E6D5904E2070E6E6F6F6B12
:100CC0000FD0FA0E6DAF02D0D89003D06C5D000E3D
:100CD0006D5904E20A0E6E6F6F6B02D06C6B6D6B18
:100CE0006B5104E189706C2B000E6D236B51006E0B
:100CF000016A6E51001802E16F51011802E16B6B3D
:060D000001D06B2B120074
:0A0D0600D9CFE6FFE1CFD9FF020EBE
:100D1000E126DE6ADD6ADECF00F0DDCF01F00134CE
:100D200004E200500008000E01541EE3DECFE9FF8C
:100D3000DDCFEAFFD890E936EA369D0EE926000EAF
:100D4000EA22EF6ADECFE9FFDDCFEAFFD890E9368D
:100D5000EA369D0EE926000EEA22EE52EF6ADF2AFD
:100D6000010E01E3DB2AD7D7939093929394939645
:100D7000C50EE66E01EC0AF0E552F28EF28C020E20
:100D8000E15C02E2E16AE552E16EE552E7CFD9FFAC
:100D90001200D9CFE6FFE1CFD9FF020EE126DE6ACD
:100DA000DD6ADECF00F0DDCF01F0D890015004E61F
:100DB000010E005C000E015801E3D1D0DECFE9FF47
:100DC000DDCFEAFFD890E936EA369D0EE926000E1F
:100DD000EA22EF0459E1DECFE9FFDDCFEAFFD89048
:100DE000E936EA369D0EE926000EEA22EE52EF5071
:100DF0000FE1DECFE9FFDDCFEAFFD890E936EA3632
:100E00009D0EE926000EEA22EE52060EEF6E3BD052
:100E1000DECFE9FFDDCFEAFFD890E936EA369D0E56
:100E2000E926000EEA22EE52EF5060081EE1DECF06
:100E3000E9FFDDCFEAFFD890E936EA369D0EE926D4
:100E4000000EEA22EE52EF6ADECFE9FFDDCFEAFFC5
:100E5000D890E936EA369D0EE926000EEA22EF50D8
:100E600002E0000E01D0010E0ED0DECFE9FFDDCF93
:100E7000EAFFD890E936EA369D0EE926000EEA220E
:100E8000EE52EF9EEF4666D0DECFE9FFDDCFEAFF00
:100E9000D890E936EA369D0EE926000EEA22EF5098
:100EA000020858E1DECFE9FFDDCFEAFFD890E9364E
:100EB000EA369D0EE926000EEA22EE52EF500FE1CF
:100EC000DECFE9FFDDCFEAFFD890E936EA369D0EA6
:100ED000E926000EEA22EE52600EEF6E3BD0DECF26
:100EE000E9FFDDCFEAFFD890E936EA369D0EE92624
:100EF000000EEA22EE52EF5006081EE1DECFE9FFB7
:100F0000DDCFEAFFD890E936EA369D0EE926000EDD
:100F1000EA22EE52EF6ADECFE9FFDDCFEAFFD8909A
:100F2000E936EA369D0EE926000EEA22EF5002E08D
:100F3000000E01D0010E0ED0DECFE9FFDDCFEAFFBB
:100F4000D890E936EA369D0EE926000EEA22EE52E6
:100F5000EF90EF42DF2A010E01E3DB2A22D7040ED5
:100F600000019E15000802E3000E01D0010EE8B05A
:100F70008A80E8A08A90080E9E15000802E3000E01
:100F800001D0010EE8B08A82E8A08A92100E9E1568
:100F9000000802E3000E01D0010EE8B08A84E8A048
:100FA0008A94200E9E15000802E3000E01D0010E67
:100FB000E8B08A86E8A08A96E66A400EE66E22ECE1
:100FC0000AF0E552E552020EE15C02E2E16AE55206
:100FD000E16EE552E7CFD9FF1200D9CFE6FFE1CFAE
:100FE000D9FFFE0EDBCF00F000343FE2FE0EDBCF78
:100FF00001F0010EE76E0118E8AE02D0013403D013
:10100000E750D880015431E3FE0EDBCFE9FFEA6AF6
:10101000E9BEEA68D890E936EA369D0EE926000E68
:10102000EA22EF5022E1FD0EDB0410E1FE0EDBCFE1
:10103000E9FFEA6AE9BEEA68D890E936EA369D0E29
:10104000E926000EEA22010EEF6E0FD0FE0EDBCF76
:10105000E9FFEA6AE9BEEA68D890E936EA369D0E09
:10106000E926000EEA22020EEF6EE552E7CFD9FF25
:0210700012006C
:0E1072009280928292949296929A0D0EE66E61
:10108000040EE66EE90EE66ECAEC09F0E552E55292
:10109000E5521200000188510A0A01E17FD0030ADB
:1010A00001E177D0010A63E00F0A5CE0010A48E041
:1010B000030A41E0010A2DE0070A26E0010A12E0D6
:1010C000030A0BE0010A01E07BD0870EE66E5AECC2
:1010D0000AF0E5520001882B73D0A9EC0AF0000158
:1010E000882B6ED0A4EC0AF000090DE194EC0AF014
:1010F000F3CF89F0F4CF8AF08F0EE66E5AEC0AF047
:10110000E5520001882B5CD0A9EC0AF00001882B85
:1011100057D0A4EC0AF000090DE194EC0AF0F3CFEB
:101120008BF0F4CF8CF0970EE66E5AEC0AF0E55295
:101130000001882B45D0A9EC0AF00001882B40D093
:10114000A4EC0AF000090DE194EC0AF0F3CF8DF065
:10115000F4CF8EF09F0EE66E5AEC0AF0E5520001D5
:10116000882B2ED0A9EC0AF00001882B29D0A4EC02
:101170000AF000090DE194EC0AF0F3CF8FF0F4CF00
:1011800090F0A70EE66E5AEC0AF0E5520001882BAB
:1011900017D0A9EC0AF00001882B12D0A4EC0AF0B9
:1011A00000090DE194EC0AF0F3CF91F0F4CF92F046
:1011B000870EE66E5AEC0AF0E5520001886B00D00B
:0211C00012001B
:0E11C200530EE66E3EEC0AF0E5521200F2B457
:1011D00002D00000FCD7F2941200DACFE4FFE2CF95
:1011E000DAFFE9CFE4FFEACFE4FFF6CFE4FFF7CF81
:1011F000E4FFF5CFE4FFF3CFE4FFF4CFE4FFFACF51
:10120000E4FF00EE0CF0020EE80403E3EECFE4FF8F
:10121000FBD700EE00F00C0EE80403E3EECFE4FF92
:10122000FBD7E6529EA003D0C9EC06F09E90E55293
:1012300000EE0BF00C0EE80403E3E5CFEDFFFBD767
:1012400000EE0DF0020EE80403E3E5CFEDFFFBD75F
:10125000E5CFFAFFE5CFF4FFE5CFF3FFE5CFF5FFEC
:10126000E5CFF7FFE5CFF6FFE5CFEAFFE5CFE9FFF2
:06127000E5CFDAFF1100DA
:0A1276002A0EF66E080EF76E000E49
:10128000F86E00010900F550986F0900F550996F4C
:1012900003E1986701D03DD00900F550936F090034
:1012A000F550946F0900F550956F09000900F5504D
:1012B000E96E0900F550EA6E090009000900F550D1
:1012C000966F0900F550976F09000900F6CF9AF064
:1012D000F7CF9BF0F8CF9CF093C0F6FF94C0F7FFD8
:1012E00095C0F8FF0001965302E1975307E009000B
:1012F000F550EE6E9607F8E29707F9D79AC0F6FF19
:101300009BC0F7FF9CC0F8FF00019807000E995B97
:04131000BFD7120031
:0C131400000000010000000100000001CA
:1013200000000100000000010001000000000001B9
:1013300001000000000001000000000100000100A9
:101340000000010000000100000100000000010099
:101350000100000000010000000001000001000089
:101360000001000000010000010000000100000079
:101370000000000101000000000001000100000069
:101380000001000001000000010000000001000059
:041390000000000158
:0C139400D9CFE6FFDACFE6FFE1CFD9FFAA
:1013A000E2CFDAFFC26AC06AFC0EDB407F0B3C0B67
:1013B000C26EFB0EDBCFE6FFFC0EDB38F00B300B12
:1013C000E552E710C16EFD0EDB50040DF350380BF3
:1013D000016EFD0EDB380F0B070B006EFD0EDB50B0
:1013E000800B00100110C06EFC0EDBAE03D09E9C83
:1013F0009D8CF28CC280E552E5CFDAFFE7CFD9FFB2
:021400001200D8
:0E140200D9CFE6FFDACFE6FFE1CFD9FFE2CF88
:10141000DAFFFD0EDB507E0BCD6EFD0EDBAC02D095
:10142000CD8E01D0CD9ECF6ACE6A9E90DBAE02D02B
:101430009D8001D09D90CD80E552E5CFDAFFE7CFCA
:04144000D9FF1200BE
:0C144400D9CFE6FFDACFE6FFE1CFD9FFF9
:10145000E2CFDAFFE652E652FC0EDBCFDEFFDBCF57
:10146000DDFF010EDB50CF6EDF50CE6EE552E55250
:0C147000E552E5CFDAFFE7CFD9FF12000C
:04147C00D9CFE6FFDF
:10148000DACFE6FFE1CFD9FFE2CFDAFFFD0EDB5086
:101490007F0BD56ED76AD66AF294FD0EDBAE02D012
:1014A000F28A01D0F29AD58EE552E5CFDAFFE7CF86
:0414B000D9FF12004E
:0C14B400D9CFE6FFDACFE6FFE1CFD9FF89
:1014C000E2CFDAFFC30EC214006EFD0EDB407F0BCD
:1014D0003C0B0010C26EE552E5CFDAFFE7CFD9FF33
:0214E0001200F8
:0E14E20000019F6B020EA06F8A9E939E120067
:1014F00000019F519F2B0A0801E29F6B9F51D880EA
:0C150000A05502E28A8E01D08A9E1200E3
:04150C0013EE00F0EA
:1015100023EE00F0F86A0D9C3BEC09F0ABEC0AF00E
:0815200016EC04F0FBD71200E9
:08152800C450036E026AC350B7
:0A1530000210F36E03C0F4FF120076
:06153A0000EE00F00F0EB0
:08154000EE6AEA62FDD7120019
:08154800C250020B01E0010E8C
:02155000120087
:04155200C28212003F
:02155600120081
:00000001FF
