:020000040000FA
:06000000D5EF0AF012002A
:06080000D5EF0AF0120022
:060808003CEF09F01200B4
:060818003CEF09F01200A4
:02082A000000CC
:04082C0034D863D881
:1008300082AC23D00001626B636B646B656B6051AB
:10084000030B02E128D86AD800016051030B0108AC
:1008500006E18B820F0EE66E77D8E55255D900017E
:100860006051030B020802E18B926CD900016051C8
:10087000030B030802E18B8283D999EC08F08BC04B
:1008800086F08CC087F08DC088F08EC089F036EC81
:1008900009F0CDD7120094928B92948C938E9398FA
:1008A0008A98939A8A9A939C8A9C0001606B616BE8
:1008B000626B636B646B656B6F6B706B666B676BA6
:1008C000686B696B070E716F726B736B746B756B12
:1008D000866B876B886B896B826B836B846B856B94
:1008E0007E6B7F6B806B816B6A6B6B6B6C6B30ECC0
:1008F00009F088EF08F082BC10D00001622B000ED6
:100900006323642365231E0E621905E1635103E12D
:10091000645101E1655101E1602B1200D9CFE6FF7E
:10092000E1CFD9FFE6528A9C1ADADF6A080EDF5C53
:1009300005E28A988A9A8A88DF2AF8D78A8CE55253
:10094000E552E7CFD9FF1200D9CFE6FFE1CFD9FFBB
:10095000E6528A9C04DADF6A080EDF5C36E28A9887
:10096000B20E036E130E046E000E056EFE0EDBCF8C
:1009700006F0076A086A030ED8900636073608366E
:10098000E806FAE103500624006E04500720016EC9
:1009900005500820026EDFCF09F00A6A0B6A00508A
:1009A0000924F36E01500A20F46E02500B20F86EF9
:1009B000F4CFF7FFF3CFF6FF0800F550E8B08A8ACE
:1009C000E8A08A9A8A88DF2AC7D78A8CE552E5523E
:1009D000E7CFD9FF1200D9CFE6FFE1CFD9FF090E4B
:1009E000E126DF6A010EDB6A020EDB6A010EF36E9E
:1009F000030EF3CFDBFF010EF36E040EF3CFDBFF2C
:100A0000010EF36E050EF3CFDBFF010EF36E060E43
:100A1000F3CFDBFF010EF36E070EF3CFDBFF8A9CF3
:100A20009ED9080EDB6AF36EDBCFF4FFF350F45C63
:100A300016E28A98D9CF00F0DACF01F0080EDB5029
:100A40000F010024E96E000E0120EA6EEF50E8B0BD
:100A50008A8AE8A08A9A8A88080EDB2AE4D78A8CD8
:100A6000090EE15C02E2E16AE552E16EE552E7CF90
:100A7000D9FF1200D9CFE6FFE1CFD9FF090EE12659
:100A8000DF6ADE52010EDD6E020EDB6A010EF36ECE
:100A9000030EF3CFDBFF010EF36E040EF3CFDBFF8B
:100AA000050EDB6A060EDB6A010EF36E070EF3CF4E
:100AB000DBFF8A9C54D9080EDB6AF36EDBCFF4FFB0
:100AC000F350F45C16E28A98D9CF00F0DACF01F047
:100AD000080EDB500F010024E96E000E0120EA6EC3
:100AE000EF50E8B08A8AE8A08A9A8A88080EDB2A42
:100AF000E4D78A8C090EE15C02E2E16AE552E16E1C
:100B0000E552E7CFD9FF120000016651671107E1F6
:100B10006F5101E160DF00016F0501E1FFDEE80ECA
:100B20000001661902E1030E671908E1666B676B45
:100B30006F2B6F51010801E26F6B03D0662B000E23
:100B40006723120000016851691107E1705101E14A
:100B500091DF0001700501E1E1DEE80E0001681996
:100B600002E1030E691908E1686B696B702B705123
:100B7000010801E2706B03D0682B000E692312009C
:100B80000001873504E28651F408010E875506E21C
:100B9000762B000E77237823792304D0766B776B3E
:100BA000786B796B893504E28851F408010E895518
:100BB00006E27A2B000E7B237C237D2304D07A6B04
:100BC0007B6B7C6B7D6B640E761905E1775103E1DD
:100BD000785101E1795107E1766B776B786B796B2E
:100BE000822B000E8323640E7A1905E17B5103E109
:100BF0007C5101E17D5107E17A6B7B6B7C6B7D6BF6
:100C0000842B000E8523050E821901E1835105E135
:100C1000826B836B7E2B000E7F23050E841901E10E
:100C2000855105E1846B856B802B000E812371510A
:100C3000000811E20E0E715D0EE27E51805D006EC5
:100C400081517F55016E070E0024716F71C0E6FF60
:100C50007BDEE55212D00E0E715D07E10E0EE66EE0
:100C600073DEE5520001010E616F715106E1E66A23
:100C70006BDEE5520001020E616F12004B0E0001A7
:100C80006CAF02D0D89003D06B5D000E6C5904E2BB
:100C9000050E6D6F6E6B50D07D0E6CAF02D0D8908C
:100CA00003D06B5D000E6C5904E20A0E6D6F6E6B23
:100CB00043D0C80E6CAF02D0D89003D06B5D000E4D
:100CC0006C5904E20F0E6D6F6E6B36D0FA0E6CAF7E
:100CD00002D0D89003D06B5D000E6C5904E2030E75
:100CE0006D6F6E6B29D07D0E6CAF02D0D89003D0A3
:100CF0006B5D000E6C5904E2050E6D6F6E6B1CD0BF
:100D0000C80E6CAF02D0D89003D06B5D000E6C594A
:100D100004E2070E6D6F6E6B0FD0FA0E6CAF02D04F
:100D2000D89003D06B5D000E6C5904E20A0E6D6F13
:100D30006E6B02D06B6B6C6B6A5104E189706B2B2C
:100D4000000E6C236A51006E016A6D51001802E1B9
:100D50006E51011802E16A6B01D06A2B1200D9CFE3
:100D6000E6FFE1CFD9FF020EE126DE6ADD6ADECFC3
:100D700000F0DDCF01F0D890015004E6C80E005C11
:100D8000000E015805E2DF2A010E01E3DB2AEFD74E
:100D9000020EE15C02E2E16AE552E16EE552E7CF64
:040DA000D9FF120065
:0C0DA400D9CFE6FFE1CFD9FF020EE12617
:100DB000DE6ADD6ADECF00F0DDCF01F0013404E24F
:100DC00000500008000E01541EE3DECFE9FFDDCF26
:100DD000EAFFD890E936EA369F0EE926000EEA22AD
:100DE000EF6ADECFE9FFDDCFEAFFD890E936EA36D9
:100DF0009F0EE926000EEA22EE52EF6ADF2A010E6C
:100E000001E3DB2AD7D79390939293949396C50EE0
:100E1000E66E50EC0AF0E552F28EF28C020EE15CC6
:100E200002E2E16AE552E16EE552E7CFD9FF120036
:100E3000D9CFE6FFE1CFD9FF020EE126DE6ADD6AF7
:100E4000DECF00F0DDCF01F0D890015004E6010EB6
:100E5000005C000E015801E3D1D0DECFE9FFDDCF09
:100E6000EAFFD890E936EA369F0EE926000EEA221C
:100E7000EF0459E1DECFE9FFDDCFEAFFD890E93694
:100E8000EA369F0EE926000EEA22EE52EF500FE1FD
:100E9000DECFE9FFDDCFEAFFD890E936EA369F0ED4
:100EA000E926000EEA22EE52060EEF6E3BD0DECFB0
:100EB000E9FFDDCFEAFFD890E936EA369F0EE92652
:100EC000000EEA22EE52EF5060081EE1DECFE9FF8D
:100ED000DDCFEAFFD890E936EA369F0EE926000E0C
:100EE000EA22EE52EF6ADECFE9FFDDCFEAFFD890CB
:100EF000E936EA369F0EE926000EEA22EF5002E0BC
:100F0000000E01D0010E0ED0DECFE9FFDDCFEAFFEB
:100F1000D890E936EA369F0EE926000EEA22EE5214
:100F2000EF9EEF4666D0DECFE9FFDDCFEAFFD89037
:100F3000E936EA369F0EE926000EEA22EF50020853
:100F400058E1DECFE9FFDDCFEAFFD890E936EA3697
:100F50009F0EE926000EEA22EE52EF500FE1DECF9F
:100F6000E9FFDDCFEAFFD890E936EA369F0EE926A1
:100F7000000EEA22EE52600EEF6E3BD0DECFE9FFAC
:100F8000DDCFEAFFD890E936EA369F0EE926000E5B
:100F9000EA22EE52EF5006081EE1DECFE9FFDDCF78
:100FA000EAFFD890E936EA369F0EE926000EEA22DB
:100FB000EE52EF6ADECFE9FFDDCFEAFFD890E936E7
:100FC000EA369F0EE926000EEA22EF5002E0000EFC
:100FD00001D0010E0ED0DECFE9FFDDCFEAFFD890C1
:100FE000E936EA369F0EE926000EEA22EE52EF902D
:100FF000EF42DF2A010E01E3DB2A22D7040E0001B3
:10100000A015000802E3000E01D0010EE8B08A80AE
:10101000E8A08A90080EA015000802E3000E01D097
:10102000010EE8B08A82E8A08A92100EA01500088E
:1010300002E3000E01D0010EE8B08A84E8A08A9491
:10104000200EA015000802E3000E01D0010EE8B04A
:101050008A86E8A08A96E66A400EE66E71EC0AF08F
:10106000E552E552020EE15C02E2E16AE552E16E10
:10107000E552E7CFD9FF1200D9CFE6FFE1CFD9FF84
:10108000FE0EDBCF00F000343FE2FE0EDBCF01F0BE
:10109000010EE76E0118E8AE02D0013403D0E7502C
:1010A000D880015431E3FE0EDBCFE9FFEA6AE9BEE6
:1010B000EA68D890E936EA369F0EE926000EEA2261
:1010C000EF5022E1FD0EDB0410E1FE0EDBCFE9FF65
:1010D000EA6AE9BEEA68D890E936EA369F0EE92660
:1010E000000EEA22010EEF6E0FD0FE0EDBCFE9FFFD
:1010F000EA6AE9BEEA68D890E936EA369F0EE92640
:10110000000EEA22020EEF6EE552E7CFD9FF120081
:101110009280928292949296929A0D0EE66E040EAE
:10112000E66EE90EE66E19EC0AF0E552E552E5527C
:10113000120000018A510A0A01E17FD0030A01E18D
:1011400077D0010A63E00F0A5CE0010A48E0030A75
:1011500041E0010A2DE0070A26E0010A12E0030A35
:101160000BE0010A01E07BD0870EE66EA9EC0AF0E5
:10117000E55200018A2B73D0F8EC0AF000018A2BAB
:101180006ED0F3EC0AF000090DE1E3EC0AF0F3CFC6
:101190008BF0F4CF8CF08F0EE66EA9EC0AF0E552DE
:1011A00000018A2B5CD0F8EC0AF000018A2B57D0A2
:1011B000F3EC0AF000090DE1E3EC0AF0F3CF8DF057
:1011C000F4CF8EF0970EE66EA9EC0AF0E55200011E
:1011D0008A2B45D0F8EC0AF000018A2B40D0F3ECC2
:1011E0000AF000090DE1E3EC0AF0F3CF8FF0F4CF41
:1011F00090F09F0EE66EA9EC0AF0E55200018A2BF2
:101200002ED0F8EC0AF000018A2B29D0F3EC0AF07A
:1012100000090DE1E3EC0AF0F3CF91F0F4CF92F086
:10122000A70EE66EA9EC0AF0E55200018A2B17D052
:10123000F8EC0AF000018A2B12D0F3EC0AF0000956
:101240000DE1E3EC0AF0F3CF93F0F4CF94F0870EC6
:10125000E66EA9EC0AF0E55200018A6B00D012009C
:10126000530EE66E8DEC0AF0E5521200F2B402D095
:101270000000FCD7F2941200DACFE4FFE2CFDAFFED
:10128000E9CFE4FFEACFE4FFF6CFE4FFF7CFE4FFD6
:10129000F5CFE4FFF3CFE4FFF4CFE4FFFACFE4FFB0
:1012A00000EE0CF0020EE80403E3EECFE4FFFBD700
:1012B00000EE00F00C0EE80403E3EECFE4FFFBD7F2
:1012C000E6529EA003D018EC07F09E90E55200EE87
:1012D0000BF00C0EE80403E3E5CFEDFFFBD700EEC7
:1012E0000DF0020EE80403E3E5CFEDFFFBD7E5CFF9
:1012F000FAFFE5CFF4FFE5CFF3FFE5CFF5FFE5CF4C
:10130000F7FFE5CFF6FFE5CFEAFFE5CFE9FFE5CF51
:04131000DAFF1100EF
:0C1314002A0EF66E080EF76E000EF86E42
:1013200000010900F5509A6F0900F5509B6F03E129
:101330009A6701D03DD00900F550956F0900F5502E
:10134000966F0900F550976F09000900F550E96E96
:101350000900F550EA6E090009000900F550986F80
:101360000900F550996F09000900F6CF9CF0F7CFFE
:101370009DF0F8CF9EF095C0F6FF96C0F7FF97C09E
:10138000F8FF0001985302E1995307E00900F55076
:10139000EE6E9807F8E29907F9D79CC0F6FF9DC05A
:1013A000F7FF9EC0F8FF00019A07000E9B5BBFD7B6
:0213B000120029
:0E13B20000000001000000010000000100002A
:1013C0000100000000010001000000000001010018
:1013D000000000000100000000010000010000000A
:1013E00001000000010000010000000001000100F8
:1013F00000000001000000000100000100000001E9
:1014000000000001000001000000010000000000D9
:1014100000010100000000000100010000000001C7
:1014200000000100000001000000000100000000B9
:021430000001B9
:0E143200D9CFE6FFDACFE6FFE1CFD9FFE2CF58
:10144000DAFFC26AC06AFC0EDB407F0B3C0BC26E47
:10145000FB0EDBCFE6FFFC0EDB38F00B300BE5526A
:10146000E710C16EFD0EDB50040DF350380B016E1A
:10147000FD0EDB380F0B070B006EFD0EDB50800BF3
:1014800000100110C06EFC0EDBAE03D09E9C9D8C44
:10149000F28CC280E552E5CFDAFFE7CFD9FF120028
:1014A000D9CFE6FFDACFE6FFE1CFD9FFE2CFDAFF0F
:1014B000FD0EDB507E0BCD6EFD0EDBAC02D0CD8E73
:1014C00001D0CD9ECF6ACE6A9E90DBAE02D09D80C9
:1014D00001D09D90CD80E552E5CFDAFFE7CFD9FF6F
:0214E0001200F8
:0E14E200D9CFE6FFDACFE6FFE1CFD9FFE2CFA8
:1014F000DAFFE652E652FC0EDBCFDEFFDBCFDDFF8C
:10150000010EDB50CF6EDF50CE6EE552E552E55254
:0A151000E5CFDAFFE7CFD9FF1200A4
:06151A00D9CFE6FFDACF95
:10152000E6FFE1CFD9FFE2CFDAFFFD0EDB507F0B04
:10153000D56ED76AD66AF294FD0EDBAE02D0F28A7F
:1015400001D0F29AD58EE552E5CFDAFFE7CFD9FF89
:02155000120087
:0E155200D9CFE6FFDACFE6FFE1CFD9FFE2CF37
:10156000DAFFC30EC214006EFD0EDB407F0B3C0B96
:101570000010C26EE552E5CFDAFFE7CFD9FF1200C7
:101580000001A16B020EA26F8A9E939E12000001C1
:10159000A151A12B0A0801E2A16BA151D880A2554B
:0A15A00002E28A8E01D08A9E12003A
:0615AA0013EE00F023EE39
:1015B00000F0F86A0D9C8AEC09F0FAEC0AF016ECDF
:0615C00004F0FBD712004D
:0A15C600C450036E026AC350021005
:0815D000F36E03C0F4FF1200EA
:0815D80000EE00F00F0EEE6AB8
:0615E000EA62FDD71200D3
:0A15E600C250020B01E0010E1200DA
:0415F000C2821200A1
:0215F4001200E3
:00000001FF
