:020000040000FA
:0600000083EF0AF012007C
:0608000083EF0AF0120074
:06080800EAEF08F0120007
:06081800EAEF08F01200F7
:02082A000000CC
:04082C0042D872D864
:1008300082AC31D00001626B636B646B656B60519D
:10084000030B02E136D879D800016051030B01088F
:1008500009E18B820F0EE66E87D8E552070EE66E31
:1008600083D8E55200016051030B020802E18B922C
:100870005ED900016051030B03080DE1615102E1F3
:100880008B8291D90001610501E16FD9020E00014F
:10089000615D01E14CD947EC08F082C07DF083C076
:1008A0007EF084C07FF085C080F0E4EC08F0BFD714
:1008B000120094928B92948C938E93988A98939A28
:1008C0008A9A939C8A9C0001606B616B626B636B7C
:1008D000646B656B666B676B686B696B6A6B6B6B84
:1008E000070E6C6F7D6B7E6B7F6B806B796B7A6BA9
:1008F0007B6B7C6B756B766B776B786B6D6B6E6BF4
:100900006F6B706B716B726B736B746BDEEC08F0FA
:100910002CEF08F082BC10D00001622B000E632384
:10092000642365231E0E621905E1635103E16451DE
:1009300001E1655101E1602B1200D9CFE6FFE1CF63
:10094000D9FFE6528A9CE4EC08F0DF6A080EDF5C0F
:1009500005E28A988A9A8A88DF2AF8D78A8CE55233
:10096000E552E7CFD9FF1200D9CFE6FFE1CFD9FF9B
:10097000E6528A9CE4EC08F0DF6A080EDF5C36E29F
:100980008A980E0E036E130E046E000E056EFE0E98
:10099000DBCF06F0076A086A030ED89006360736E2
:1009A0000836E806FAE103500624006E04500720DA
:1009B000016E05500820026EDFCF09F00A6A0B6A4B
:1009C00000500924F36E01500A20F46E02500B20EF
:1009D000F86EF4CFF7FFF3CFF6FF0800F550E8B05C
:1009E0008A8AE8A08A9A8A88DF2AC7D78A8CE55241
:1009F000E552E7CFD9FF1200D9CFE6FFE1CFD9FF0B
:100A0000090EE126DF6A010EDB6A020EDB6A010EC7
:100A1000F36E030EF3CFDBFF010EF36E040EF3CF84
:100A2000DBFF010EF36E050EF3CFDBFF010EF36E5D
:100A3000060EF3CFDBFF010EF36E070EF3CFDBFFE5
:100A40008A9CE4EC08F0080EDB6AF36EDBCFF4FF5F
:100A5000F350F45C16E28A98D9CF00F0DACF01F0B7
:100A6000080EDB500F010024E96E000E0120EA6E33
:100A7000EF50E8B08A8AE8A08A9A8A88080EDB2AB2
:100A8000E4D78A8C090EE15C02E2E16AE552E16E8C
:100A9000E552E7CFD9FF1200D9CFE6FFE1CFD9FF6A
:100AA000090EE126DF6ADE52010EDD6E020EDB6A00
:100AB000010EF36E030EF3CFDBFF010EF36E040E97
:100AC000F3CFDBFF050EDB6A060EDB6A010EF36E69
:100AD000070EF3CFDBFF8A9CE4EC08F0080EDB6A1C
:100AE000F36EDBCFF4FFF350F45C16E28A98D9CFB3
:100AF00000F0DACF01F0080EDB500F010024E96EA0
:100B0000000E0120EA6EEF50E8B08A8AE8A08A9AC7
:100B10008A88080EDB2AE4D78A8C090EE15C02E29F
:100B2000E16AE552E16EE552E7CFD9FF120000011C
:100B30006851691107E1665101E15EDF0001660558
:100B400001E1FBDEE80E0001681902E1030E6919FC
:100B500008E1686B696B662B6651010801E2666B00
:100B600003D0682B000E6923120000016A516B113B
:100B700007E1675101E190DF0001670501E1DDDE7A
:100B8000E80E00016A1902E1030E6B1908E16A6BB5
:100B90006B6B672B6751010801E2676B03D06A2B0F
:100BA000000E6B23120000017E3504E27D51F40833
:100BB000010E7E5507E26D2B000E6E236F2370230E
:100BC0008B8205D06D6B6E6B6F6B706B8B9280350B
:100BD00004E27F51F408010E805506E2712B000EED
:100BE00072237323742304D0716B726B736B746BF9
:100BF000640E6D1905E16E5103E16F5101E1705111
:100C000007E16D6B6E6B6F6B706B792B000E7A2347
:100C1000640E711905E1725103E1735101E17451E0
:100C200007E1716B726B736B746B7B2B000E7C2313
:100C3000050E791901E17A5105E1796B7A6B752B13
:100C4000000E7623050E7B1901E17C5105E17B6BDB
:100C50007C6B772B000E78236C51000811E20E0E8E
:100C60006C5D0EE27551775D006E78517655016EC0
:100C7000070E00246C6F6CC0E6FF76DEE55212D0E2
:100C80000E0E6C5D07E10E0EE66E6EDEE5520001A3
:100C9000010E616F6C5106E1E66A66DEE552000105
:100CA000020E616F1200D9CFE6FFE1CFD9FF020E2D
:100CB000E126DE6ADD6ADECF00F0DDCF01F0D890FC
:100CC000015004E6D00E005C070E015805E2DF2A51
:100CD000010E01E3DB2AEFD7020EE15C02E2E16ADA
:0C0CE000E552E16EE552E7CFD9FF1200AB
:040CEC00D9CFE6FF77
:100CF000E1CFD9FF020EE126DE6ADD6ADECF00F029
:100D0000DDCF01F0013404E200500008000E015470
:100D10001EE3DECFE9FFDDCFEAFFD890E936EA3601
:100D2000960EE926000EEA22EF6ADECFE9FFDDCF5C
:100D3000EAFFD890E936EA36960EE926000EEA2256
:100D4000EE52EF6ADF2A010E01E3DB2AD7D7939038
:100D5000939293949396C50EE66EFEEC09F0E552DD
:100D6000F28EF28C020EE15C02E2E16AE552E16E83
:100D7000E552E7CFD9FF1200D9CFE6FFE1CFD9FF87
:100D8000020EE126DE6ADD6ADECF00F0DDCF01F083
:100D9000D890015004E6010E005C000E015801E3FA
:100DA000D1D0DECFE9FFDDCFEAFFD890E936EA36D1
:100DB000960EE926000EEA22EF0459E1DECFE9FFA4
:100DC000DDCFEAFFD890E936EA36960EE926000E26
:100DD000EA22EE52EF500FE1DECFE9FFDDCFEAFF6E
:100DE000D890E936EA36960EE926000EEA22EE524F
:100DF000060EEF6E3BD0DECFE9FFDDCFEAFFD890E5
:100E0000E936EA36960EE926000EEA22EE52EF5057
:100E100060081EE1DECFE9FFDDCFEAFFD890E936BA
:100E2000EA36960EE926000EEA22EE52EF6ADECF8F
:100E3000E9FFDDCFEAFFD890E936EA36960EE926DB
:100E4000000EEA22EF5002E0000E01D0010E0ED09B
:100E5000DECFE9FFDDCFEAFFD890E936EA36960E1D
:100E6000E926000EEA22EE52EF9EEF4666D0DECF74
:100E7000E9FFDDCFEAFFD890E936EA36960EE9269B
:100E8000000EEA22EF50020858E1DECFE9FFDDCF85
:100E9000EAFFD890E936EA36960EE926000EEA22F5
:100EA000EE52EF500FE1DECFE9FFDDCFEAFFD89041
:100EB000E936EA36960EE926000EEA22EE52600E78
:100EC000EF6E3BD0DECFE9FFDDCFEAFFD890E93609
:100ED000EA36960EE926000EEA22EE52EF50060898
:100EE0001EE1DECFE9FFDDCFEAFFD890E936EA3632
:100EF000960EE926000EEA22EE52EF6ADECFE9FFF7
:100F0000DDCFEAFFD890E936EA36960EE926000EE4
:100F1000EA22EF5002E0000E01D0010E0ED0DECF2B
:100F2000E9FFDDCFEAFFD890E936EA36960EE926EA
:100F3000000EEA22EE52EF90EF42DF2A010E01E3AB
:100F4000DB2A22D7040E00019715000802E3000EE9
:100F500001D0010EE8B08A80E8A08A90080E9715AB
:100F6000000802E3000E01D0010EE8B08A82E8A07A
:100F70008A92100E9715000802E3000E01D0010EB0
:100F8000E8B08A84E8A08A94200E9715000802E34E
:100F9000000E01D0010EE8B08A86E8A08A96E66AC3
:100FA000400EE66E1FEC0AF0E552E552020EE15CDF
:100FB00002E2E16AE552E16EE552E7CFD9FF1200A5
:100FC000D9CFE6FFE1CFD9FFFE0EDBCF00F0003432
:100FD0003FE2FE0EDBCF01F0010EE76E0118E8AE36
:100FE00002D0013403D0E750D880015431E3FE0E23
:100FF000DBCFE9FFEA6AE9BEEA68D890E936EA366B
:10100000960EE926000EEA22EF5022E1FD0EDB04E7
:1010100010E1FE0EDBCFE9FFEA6AE9BEEA68D8908C
:10102000E936EA36960EE926000EEA22010EEF6E48
:101030000FD0FE0EDBCFE9FFEA6AE9BEEA68D8907E
:10104000E936EA36960EE926000EEA22020EEF6E27
:08105000E552E7CFD9FF1200C1
:0810580092809282929492961C
:10106000929A0D0EE66E040EE66EE90EE66EC7EC81
:1010700009F0E552E552E5520001816B826B836B0A
:10108000846B856B886B896B8A6B8B6B120000019C
:1010900081510A0A01E17FD0030A01E177D0010AF8
:1010A00063E00F0A5CE0010A48E0030A41E0010A3C
:1010B0002DE0070A26E0010A12E0030A0BE0010A0C
:1010C00001E07BD0870EE66E57EC0AF0E552000196
:1010D000812B73D0A6EC0AF00001812B6ED0A1EC1D
:1010E0000AF000090DE191EC0AF0F3CF82F0F4CFA1
:1010F00083F08F0EE66E57EC0AF0E5520001812B6B
:101100005CD0A6EC0AF00001812B57D0A1EC0AF0CC
:1011100000090DE191EC0AF0F3CF84F0F4CF85F0F3
:10112000970EE66E57EC0AF0E5520001812B45D090
:10113000A6EC0AF00001812B40D0A1EC0AF00009D6
:101140000DE191EC0AF0F3CF86F0F4CF87F09F0E1B
:10115000E66E57EC0AF0E5520001812B2ED0A6EC8A
:101160000AF00001812B29D0A1EC0AF000090DE161
:1011700091EC0AF0F3CF88F0F4CF89F0A70EE66E79
:1011800057EC0AF0E5520001812B17D0A6EC0AF0CB
:101190000001812B12D0A1EC0AF000090DE191ECC5
:1011A0000AF0F3CF8AF0F4CF8BF0870EE66E57EC9F
:0C11B0000AF0E5520001816B00D0120033
:0411BC00530EE66E7A
:1011C0003BEC0AF0E5521200F2B402D00000FCD76A
:1011D000F2941200DACFE4FFE2CFDAFFE9CFE4FFC6
:1011E000EACFE4FFF6CFE4FFF7CFE4FFF5CFE4FF6B
:1011F000F3CFE4FFF4CFE4FFFACFE4FF00EE0CF00E
:10120000020EE80403E3EECFE4FFFBD700EE00F0AC
:101210000C0EE80403E3EECFE4FFFBD7E6529EA0FA
:1012200003D0BCEC06F09E90E55200EE0BF00C0EE5
:10123000E80403E3E5CFEDFFFBD700EE0DF0020E6F
:10124000E80403E3E5CFEDFFFBD7E5CFFAFFE5CFF9
:10125000F4FFE5CFF3FFE5CFF5FFE5CFF7FFE5CFEF
:10126000F6FFE5CFEAFFE5CFE9FFE5CFDAFF1100B2
:101270002A0EF66E080EF76E000EF86E00010900D9
:10128000F550916F0900F550926F03E1916701D01D
:101290003DD00900F5508C6F0900F5508D6F0900A5
:1012A000F5508E6F09000900F550E96E0900F55000
:1012B000EA6E090009000900F5508F6F0900F5502A
:1012C000906F09000900F6CF93F0F7CF94F0F8CFB4
:1012D00095F08CC0F6FF8DC0F7FF8EC0F8FF0001BF
:1012E0008F5302E1905307E00900F550EE6E8F072F
:1012F000F8E29007F9D793C0F6FF94C0F7FF95C0C6
:0E130000F8FF00019107000E925BBFD71200AC
:02130E000000DD
:1013100000010000000100000001000001000000C9
:1013200000010001000000000001010000000000B9
:1013300001000000000100000100000001000000A9
:101340000100000100000000010001000000000198
:101350000000000001000001000000010000000189
:101360000000010000000100000000000001010079
:101370000000000001000100000000010000010069
:0E13800000000100000000010000000000015C
:02138E00D9CFB5
:10139000E6FFDACFE6FFE1CFD9FFE2CFDAFFC26A9C
:1013A000C06AFC0EDB407F0B3C0BC26EFB0EDBCF3A
:1013B000E6FFFC0EDB38F00B300BE552E710C16E98
:1013C000FD0EDB50040DF350380B016EFD0EDB38C3
:1013D0000F0B070B006EFD0EDB50800B0010011091
:1013E000C06EFC0EDBAE03D09E9C9D8CF28CC28046
:0C13F000E552E5CFDAFFE7CFD9FF12008D
:0413FC00D9CFE6FF60
:10140000DACFE6FFE1CFD9FFE2CFDAFFFD0EDB5006
:101410007E0BCD6EFD0EDBAC02D0CD8E01D0CD9E0D
:10142000CF6ACE6A9E90DBAE02D09D8001D09D90A7
:0E143000CD80E552E5CFDAFFE7CFD9FF1200FD
:02143E00D9CF04
:10144000E6FFDACFE6FFE1CFD9FFE2CFDAFFE652DF
:10145000E652FC0EDBCFDEFFDBCFDDFF010EDB5003
:10146000CF6EDF50CE6EE552E552E552E5CFDAFFA2
:06147000E7CFD9FF1200D6
:0A147600D9CFE6FFDACFE6FFE1CFA1
:10148000D9FFE2CFDAFFFD0EDB507F0BD56ED76AB6
:10149000D66AF294FD0EDBAE02D0F28A01D0F29A47
:0E14A000D58EE552E5CFDAFFE7CFD9FF120077
:0214AE00D9CF94
:1014B000E6FFDACFE6FFE1CFD9FFE2CFDAFFC30ED6
:1014C000C214006EFD0EDB407F0B3C0B0010C26EA1
:0C14D000E552E5CFDAFFE7CFD9FF1200AC
:0414DC000001986B08
:1014E000020E996F8A9E939E120000019851982BCC
:1014F0000A0801E2986B9851D880995502E28A8EC9
:0615000001D08A9E1200DA
:0A15060013EE00F023EE00F0F86A87
:101510000D9C38EC09F0A8EC0AF016EC04F0FBD7AF
:021520001200B7
:0E152200C450036E026AC3500210F36E03C081
:04153000F4FF1200B2
:0C15340000EE00F00F0EEE6AEA62FDD738
:02154000120097
:0A154200C250020B01E0010E12007E
:04154C00C282120045
:02155000120087
:00000001FF
