:020000040000FA
:06000000AEEF0AF0120051
:06080000AEEF0AF0120049
:0608080055EF09F012009B
:0608180055EF09F012008B
:06082A000100C4150000EE
:080830006000000080000000E0
:08083800D9CFE6FFE1CFD9FFA3
:10084000020EE1268150010BDF6E010EDB6AFBD840
:100850008150010B106EDF50105C07E08150010BDE
:10086000DF6E81B002D00001E02BF2D7030E106ED4
:1008700010C00CF0E0C007F0BCEC0AF0035001E13E
:1008800007D9030E106E10C00CF0E0C007F0BCECEE
:100890000AF00350010801E0BFD081B21ED0000170
:1008A000E15108E1010EDB5001E133D9010EDB0417
:1008B00001E1DFD8640E0001E15D0CE1E16B010EA6
:1008C000DB2AF36EDBCFF4FFF350F45C02E3010E9E
:1008D000DB6A01D0E12B4FEC09F081A29DD0C9D891
:1008E00064D904DA0E0E0001EA5D02E0EA5135E156
:1008F0000E0EEA5D19E18A9C4FEC09F00001E96BEC
:10090000080EE95D0FE28A98E951EA6AD00FE96EB4
:10091000000EEA22EF50E8B08A8AE8A08A9A8A8814
:10092000E92BEED78A8C18D08A9C4FEC09F0000195
:10093000E96B080EE95D0FE28A98E951EA6A600FF7
:10094000E96E000EEA22EF50E8B08A8AE8A08A9A9F
:100950008A88E92BEED78A8C5FD0010EE66E67D9C4
:10096000E5520001EE6F020EE66E61D9E55200011C
:10097000F06FF051D880EE5526E28A9C4FEC09F0DA
:100980000001E96B080EE95D1BE28A98EA51080D47
:10099000F3CF10F0F4CF11F0600E1026000E1122EC
:1009A000E9510F011024E96E000E1120EA6EEF509C
:1009B000E8B08A8AE8A08A9A8A880001E92BE2D7FF
:1009C0008A8CEA0729D0F051EE5D26E28A9C4FEC32
:1009D00009F00001E96B080EE95D1BE28A98EB5112
:1009E000080DF3CF10F0F4CF11F0600E1026000EBA
:1009F0001122E9510F011024E96E000E1120EA6E58
:100A0000EF50E8B08A8AE8A08A9A8A880001E92B28
:100A1000E2D78A8CEB2B00D0030E106E10C00CF0C6
:100A2000E0C007F0BCEC0AF00350020800E14FEC14
:100A300009F0020EE15C02E2E16AE552E16EE55284
:100A4000E7CFD9FF1200948092908990939A8A9A66
:100A500093988A98939C8A9C0001F26BE06BE46BFC
:100A6000E56BE66B060EEA6F070EEB6FE96B49EF7D
:100A700009F08A9C4FEC09F00001E96B080EE95D72
:100A800005E28A988A9A8A88E92BF8D78A8C12001C
:100A9000D9CFE6FFE1CFD9FF080EE126DF6ADE52AB
:100AA000010EDD6E020EDB6A030EDB6A040EDB6AEA
:100AB000050EDB6A060EDB6A010EF36E070EF3CF3E
:100AC000DBFF8A9C4FEC09F00001E96B080EE95D41
:100AD00015E28A98D9CF10F0DACF11F0E9510F0161
:100AE0001024E96E000E1120EA6EEF50E8B08A8AF9
:100AF000E8A08A9A8A880001E92BE8D78A8C080E38
:100B0000E15C02E2E16AE552E16EE552E7CFD9FF2E
:100B10001200D9CFE6FFE1CFD9FF080EE126DF6A48
:100B2000010EDB6A020EDB6A010EF36E030EF3CFD9
:100B3000DBFF010EF36E040EF3CFDBFF010EF36E4D
:100B4000050EF3CFDBFF010EF36E060EF3CFDBFFD6
:100B5000010EF36E070EF3CFDBFF8A9C4FEC09F01A
:100B60000001E96B080EE95D15E28A98D9CF10F013
:100B7000DACF11F0E9510F011024E96E000E1120B7
:100B8000EA6EEF50E8B08A8AE8A08A9A8A88000163
:100B9000E92BE8D78A8C080EE15C02E2E16AE552B3
:100BA000E16EE552E7CFD9FF1200D9CFE6FFE1CFE2
:100BB000D9FF080EE126DF6A010EDB6AF36E020E32
:100BC000F3CFDBFF030EDB6A010EF36E040EF3CFEF
:100BD000DBFF050EDB6A060EDB6A070EDB6A8A9C0A
:100BE0004FEC09F00001E96B080EE95D15E28A9807
:100BF000D9CF10F0DACF11F0E9510F011024E96ECE
:100C0000000E1120EA6EEF50E8B08A8AE8A08A9AB6
:100C10008A880001E92BE8D78A8C080EE15C02E2A1
:100C2000E16AE552E16EE552E7CFD9FF1200D9CF74
:100C3000E6FFE1CFD9FF060EE126DE6ADD6A020E8D
:100C4000DB6A030EDB6A040EDB6A050EF2C0DBFF13
:100C5000B2EC08F0040EDB6ADB50106E116AD8901B
:100C6000115004E6880E105C130E115830E2FE0E8F
:100C7000DB0404E1F7C0DEFFF8C0DDFFFE0EDB5051
:100C8000020804E1F9C0DEFFFAC0DDFF050EDB500B
:100C90000001F25D0AE0050EF2C0DBFFF20505E19E
:100CA000020EDB2A030E01E3DB2ADECF10F0DDCFDC
:100CB00011F0113404E21050FF08010E115403E248
:100CC000010EF26F01D0F26B040EDB2AC5D7020EC3
:100CD000DB50106E060EE15C03E200D0E16AE552E3
:100CE000E16E1050E552E7CFD9FF12000001E35149
:100CF00064E14B0EE6AF02D0D89003D0E55D000E64
:100D0000E65904E2050EE76FE86B50D07D0EE6AFC2
:100D100002D0D89003D0E55D000EE65904E20A0E39
:100D2000E76FE86B43D0C80EE6AF02D0D89003D08F
:100D3000E55D000EE65904E20F0EE76FE86B36D072
:100D4000FA0EE6AF02D0D89003D0E55D000EE6596A
:100D500004E2030EE76FE86B29D07D0EE6AF02D008
:100D6000D89003D0E55D000EE65904E2050EE76F6A
:100D7000E86B1CD0C80EE6AF02D0D89003D0E55D7A
:100D8000000EE65904E2070EE76FE86B0FD0FA0E8B
:100D9000E6AF02D0D89003D0E55D000EE65904E23C
:100DA0000A0EE76FE86B02D0E56BE66BE45104E1F5
:100DB0008970E52B000EE62301D08990E451106E76
:100DC000116AE751101802E1E851111802E1E46BD1
:060DD00001D0E42B12002B
:0A0DD600D9CFE6FFE1CFD9FF020EEE
:100DE000E126DE6ADD6ADECF10F0DDCF11F01134CE
:100DF00004E210500008000E11541EE3DECFE9FF9C
:100E0000DDCFEAFFD890E936EA360A0EE926010E70
:100E1000EA22EF6ADECFE9FFDDCFEAFFD890E936BC
:100E2000EA360A0EE926010EEA22EE52EF6ADF2ABE
:100E3000010E01E3DB2AD7D7939093929394939674
:100E4000C50EE66E29EC0AF0E552F28EF28C020E27
:100E5000E15C02E2E16AE552E16EE552E7CFD9FFDB
:100E60001200D9CFE6FFE1CFD9FF020EE126DE6AFC
:100E7000DD6ADECF10F0DDCF11F0D890115004E61E
:100E8000010E105C000E115801E3D1D0DECFE9FF56
:100E9000DDCFEAFFD890E936EA360A0EE926010EE0
:100EA000EA22EF0459E1DECFE9FFDDCFEAFFD89077
:100EB000E936EA360A0EE926010EEA22EE52EF5032
:100EC0000FE1DECFE9FFDDCFEAFFD890E936EA3661
:100ED0000A0EE926010EEA22EE52060EEF6E3BD014
:100EE000DECFE9FFDDCFEAFFD890E936EA360A0E19
:100EF000E926010EEA22EE52EF5060081EE1DECF35
:100F0000E9FFDDCFEAFFD890E936EA360A0EE92696
:100F1000010EEA22EE52EF6ADECFE9FFDDCFEAFFF3
:100F2000D890E936EA360A0EE926010EEA22EF5099
:100F300002E0000E01D0010E0ED0DECFE9FFDDCFC2
:100F4000EAFFD890E936EA360A0EE926010EEA22CF
:100F5000EE52EF9EEF4666D0DECFE9FFDDCFEAFF2F
:100F6000D890E936EA360A0EE926010EEA22EF5059
:100F7000020858E1DECFE9FFDDCFEAFFD890E9367D
:100F8000EA360A0EE926010EEA22EE52EF500FE190
:100F9000DECFE9FFDDCFEAFFD890E936EA360A0E68
:100FA000E926010EEA22EE52600EEF6E3BD0DECF54
:100FB000E9FFDDCFEAFFD890E936EA360A0EE926E6
:100FC000010EEA22EE52EF5006081EE1DECFE9FFE5
:100FD000DDCFEAFFD890E936EA360A0EE926010E9F
:100FE000EA22EE52EF6ADECFE9FFDDCFEAFFD890CA
:100FF000E936EA360A0EE926010EEA22EF5002E04F
:10100000000E01D0010E0ED0DECFE9FFDDCFEAFFEA
:10101000D890E936EA360A0EE926010EEA22EE52A7
:10102000EF90EF42DF2A010E01E3DB2A22D7040E04
:1010300001010B15000802E3000E01D0010EE8B01B
:101040008A80E8A08A90080E0B15000802E3000EC3
:1010500001D0010EE8B08A82E8A08A92100E0B152A
:10106000000802E3000E01D0010EE8B08A84E8A077
:101070008A94200E0B15000802E3000E01D0010E29
:10108000E8B08A86E8A08A96E66A400EE66E4AECE8
:101090000AF0E552E552020EE15C02E2E16AE55235
:1010A000E16EE552E7CFD9FF1200D9CFE6FFE1CFDD
:1010B000D9FFFE0EDBCF10F010343FE2FE0EDBCF87
:1010C00011F0010EE76E1118E8AE02D0113403D012
:1010D000E750D880115431E3FE0EDBCFE9FFEA6A16
:1010E000E9BEEA68D890E936EA360A0EE926010E2A
:1010F000EA22EF5022E1FD0EDB0410E1FE0EDBCF11
:10110000E9FFEA6AE9BEEA68D890E936EA360A0EEB
:10111000E926010EEA22010EEF6E0FD0FE0EDBCFA4
:10112000E9FFEA6AE9BEEA68D890E936EA360A0ECB
:10113000E926010EEA22020EEF6EE552E7CFD9FF53
:0211400012009B
:0E1142009280929292949296929A0E0EE66E7F
:10115000040EE66EE90EE66EF2EC09F0E552E55299
:10116000E55212000001F4510A0A01E17FD0030A9E
:1011700001E177D0010A63E00F0A5CE0010A48E070
:10118000030A41E0010A2DE0070A26E0010A12E005
:10119000030A0BE0010A01E07BD0870EE66E82ECC9
:1011A0000AF0E5520001F42B73D0DFEC0AF00001E5
:1011B000F42B6ED0DAEC0AF000090DE1CAEC0AF06B
:1011C000F3CFF5F0F4CFF6F08F0EE66E82EC0AF076
:1011D000E5520001F42B5CD0DFEC0AF00001F42BA7
:1011E00057D0DAEC0AF000090DE1CAEC0AF0F3CFAF
:1011F000F7F0F4CFF8F0970EE66E82EC0AF0E552C5
:101200000001F42B45D0DFEC0AF00001F42B40D0B4
:10121000DAEC0AF000090DE1CAEC0AF0F3CFF9F0BC
:10122000F4CFFAF09F0EE66E82EC0AF0E552000170
:10123000F42B2ED0DFEC0AF00001F42B29D0DAECED
:101240000AF000090DE1CAEC0AF0F3CFFBF0F4CF8D
:10125000FCF0A70EE66E82EC0AF0E5520001F42BDA
:1012600017D0DFEC0AF00001F42B12D0DAEC0AF010
:1012700000090DE1CAEC0AF0F3CFFDF0F4CFFEF067
:10128000870EE66E82EC0AF0E5520001F46B00D0A6
:0212900012004A
:0E129200530EE66E66EC0AF0E5521200F2B45E
:1012A00002D00000FCD7F2941200DACFE4FFE2CFC4
:1012B000DAFFE9CFE4FFEACFE4FFF6CFE4FFF7CFB0
:1012C000E4FFF5CFE4FFF3CFE4FFF4CFE4FFFACF80
:1012D000E4FF00EE00F0100EE80403E3EECFE4FFBD
:1012E000FBD700EE10F0040EE80403E3EECFE4FFBA
:1012F000FBD7E6529EA003D031EC07F09E90E5525A
:1013000000EE13F0040EE80403E3E5CFEDFFFBD796
:1013100000EE0FF0100EE80403E3E5CFEDFFFBD77E
:10132000E5CFFAFFE5CFF4FFE5CFF3FFE5CFF5FF1B
:10133000E5CFF7FFE5CFF6FFE5CFEAFFE5CFE9FF21
:06134000E5CFDAFF110009
:0A1346002A0EF66E080EF76E000E78
:10135000F86E01010900F550056F0900F550066FA0
:1013600003E1056701D03DD00900F550006F090089
:10137000F550016F0900F550026F09000900F550A2
:10138000E96E0900F550EA6E090009000900F55000
:10139000036F0900F550046F09000900F6CF07F14B
:1013A000F7CF08F1F8CF09F100C1F6FF01C1F7FF4F
:1013B00002C1F8FF0101035302E1045307E00900F1
:1013C000F550EE6E0307F8E20407F9D707C1F6FF00
:1013D00008C1F7FF09C1F8FF01010507000E065B10
:0413E000BFD7120061
:0C13E400D9CFE6FFDACFE6FFE1CFD9FF5A
:1013F000E2CFDAFFC26AC06AFC0EDB407F0B3C0B17
:10140000C26EFB0EDBCFE6FFFC0EDB38F00B300BC1
:10141000E552E710C16EFD0EDB50040DF350380BA2
:10142000116EFD0EDB380F0B070B106EFD0EDB503F
:10143000800B10101110C06EFC0EDBAE03D09E9C12
:101440009D8CF28CC280E552E5CFDAFFE7CFD9FF61
:02145000120088
:0E145200D9CFE6FFDACFE6FFE1CFD9FFE2CF38
:10146000DAFFFD0EDB507E0BCD6EFD0EDBAC02D045
:10147000CD8E01D0CD9ECF6ACE6A9E90DBAE02D0DB
:101480009D8001D09D90CD80E552E5CFDAFFE7CF7A
:04149000D9FF12006E
:0C149400D9CFE6FFDACFE6FFE1CFD9FFA9
:1014A000E2CFDAFFE652E652FC0EDBCFDEFFDBCF07
:1014B000DDFF010EDB50CF6EDF50CE6EE552E55200
:0C14C000E552E5CFDAFFE7CFD9FF1200BC
:0414CC00D9CFE6FF8F
:1014D000DACFE6FFE1CFD9FFE2CFDAFFFD0EDB5036
:1014E0007F0BD56ED76AD66AF294FD0EDBAE02D0C2
:1014F000F28A01D0F29AD58EE552E5CFDAFFE7CF36
:04150000D9FF1200FD
:0C150400D9CFE6FFDACFE6FFE1CFD9FF38
:10151000E2CFDAFFC30EC214106EFD0EDB407F0B6C
:101520003C0B1010C26EE552E5CFDAFFE7CFD9FFD2
:021530001200A7
:0E15320001010C6B020E0D6F8A9E939E12003B
:1015400001010C510C2B0A0801E20C6B0C51D880E4
:0C1550000D5502E28A8E01D08A9E120026
:04155C0013EE00F09A
:1015600023EE00F0F86A0F9CA3EC09F0E1EC0AF01E
:081570001CEC04F0FBD7120093
:08157800036A080EE76ED8902B
:10158000073603360C50035C02E3036E072AE72E8E
:04159000F7D7120077
:0C159400C450136E126AC3501210F36EA4
:0615A00013C0F4FF12006D
:0A15A60000EE00F00F0EEE6AEA629C
:0415B000FDD7120051
:0A15B400C250020B01E0010E12000C
:0215BE00C282E7
:0215C000120017
:0215C200120015
:0C15C40000010000000001000001000018
:1015D0000001000000010000010000000100000007
:1015E00000000001010000000000010001000000F7
:1015F00000010000010000000100000000000100E7
:1016000000010000000001000000010000000100D6
:1016100000000001000000010100000000000001C6
:1016200000010000000000010000010000000001B6
:1016300000000001010000000101010100000001A3
:0416400001010101A2
:00000001FF
