:020000040000FA
:060000006AEF10F012008F
:060800006AEF10F0120087
:06080800D1EF0EF012001A
:06081800D1EF0EF012000A
:02082A000000CC
:04082C0093988A987B
:10083000939A8A9A939C8A9C00018F6B906B916B20
:10084000926B936B946B956B966B976B986B996BA4
:100850009A6B9B6B9C6BE80E9D6F030E9E6F070E51
:100860009F6FA16B0E0EA26FA36BA46B1200D9CF6A
:10087000E6FFE1CFD9FFE6528A9C3EDBDF6A080E35
:10088000DF5C05E28A988A9A8A88DF2AF8D78A8C00
:10089000E552E552E7CFD9FF1200D9CFE6FFE1CF0D
:1008A000D9FFE6528A9C28DBDF6A080EDF5C36E25D
:1008B0008A98DC0E136E1E0E146E000E156EFE0E60
:1008C000DBCF16F0176A186A030ED8901636173663
:1008D0001836E806FAE113501624106E145017204B
:1008E000116E15501820126EDFCF19F01A6A1B6AAC
:1008F00010501924F36E11501A20F46E12501B2060
:10090000F86EF4CFF7FFF3CFF6FF0800F550E8B02C
:100910008A8AE8A08A9A8A88DF2AC7D78A8CE55211
:10092000E552E7CFD9FF1200D9CFE6FFE1CFD9FFDB
:10093000090EE126010EDF6EDB6A020EDB6A030E92
:10094000DB6A010EF36E040EF3CFDBFF010EF36ED4
:10095000050EF3CFDBFF010EF36E060EF3CFDBFFC8
:10096000010EF36E070EF3CFDBFF8A9CC5DA080E8B
:10097000DB6AF36EDBCFF4FFF350F45C16E28A9887
:10098000D9CF10F0DACF11F0080EDB500F01102490
:10099000E96E000E1120EA6EEF50E8B08A8AE8A0F6
:1009A0008A9A8A88080EDB2AE4D78A8C090EE15CD1
:1009B00002E2E16AE552E16EE552E7CFD9FF1200AB
:1009C00000019351941107E18F5101E1ADDF000166
:1009D0008F0501E14CDFE80E0001931902E1030EDF
:1009E000941908E1936B946B8F2B8F51010801E2EE
:1009F0008F6B03D0932B000E94231200D9CFE6FF08
:100A0000E1CFD9FF090EE126DF6A010EDB6A020E93
:100A1000DB6A010EF36E030EF3CFDBFF010EF36E04
:100A2000040EF3CFDBFF010EF36E050EF3CFDBFFF9
:100A3000010EF36E060EF3CFDBFF010EF36E070E11
:100A4000F3CFDBFF8A9C58DA080EDB6AF36EDBCF4C
:100A5000F4FFF350F45C16E28A98D9CF10F0DACFA5
:100A600011F0080EDB500F011024E96E000E11206A
:100A7000EA6EEF50E8B08A8AE8A08A9A8A88080E5F
:100A8000DB2AE4D78A8C090EE15C02E2E16AE552D6
:100A9000E16EE552E7CFD9FF1200D9CFE6FFE1CFF3
:100AA000D9FFE65200019551961107E1905101E1FD
:100AB000A5DF0001900501E1DADEE80E00019519DD
:100AC00002E1030E961908E1956B966B902B9051FD
:100AD000010801E2906B03D0952B000E9623E5529E
:100AE000E552E7CFD9FF1200D9CFE6FFE1CFD9FF1A
:100AF000E6520001A351A4113DE18A9CDF6A080E71
:100B0000DF5C35E28A98DC0E136E1E0E146E000E4A
:100B1000156EA1C016F0176A186A030ED890163623
:100B200017361836E806FAE113501624106E1450E2
:100B30001720116E15501820126EDFCF19F01A6AA7
:100B40001B6A10501924F36E11501A20F46E1250C3
:100B50001B20F86EF4CFF7FFF3CFF6FF0800F55037
:100B6000E8B08A8AE8A08A9A8A88DF2AC8D78A8C5D
:100B70000001A12B580EA31902E1020EA41903E1F2
:100B8000A36BA46B03D0A32B000EA423A1510E08CA
:100B900001E2A16BE552E552E7CFD9FF1200D9CFB0
:100BA000E6FFE1CFD9FFE6520001A351A4113DE1D8
:100BB0008A9CDF6A080EDF5C35E28A98DC0E136ED1
:100BC0001E0E146E000E156EA1C016F0176A186A7C
:100BD000030ED890163617361836E806FAE1135089
:100BE0001624106E14501720116E15501820126E16
:100BF000DFCF19F01A6A1B6A10501924F36E1150D6
:100C00001A20F46E12501B20F86EF4CFF7FFF3CFCA
:100C1000F6FF0800F550E8B08A8AE8A08A9A8A8828
:100C2000DF2AC8D78A8C0001A12BA43504E2A35186
:100C30003208000EA45503E2A36BA46B03D0A32BD0
:100C4000000EA423A1510E0801E2A16BE552E5526A
:100C5000E7CFD9FF1200D9CFE6FFE1CFD9FFE652A7
:100C60000001A351A4113DE18A9CDF6A080EDF5CFC
:100C700035E28A98DC0E136E1E0E146E000E156E91
:100C8000A2C016F0176A186A030ED89016361736E7
:100C90001836E806FAE113501624106E1450172087
:100CA000116E15501820126EDFCF19F01A6A1B6AE8
:100CB00010501924F36E11501A20F46E12501B209C
:100CC000F86EF4CFF7FFF3CFF6FF0800F550E8B069
:100CD0008A8AE8A08A9A8A88DF2AC8D78A8C000183
:100CE000A207580EA31902E1020EA41903E1A36B97
:100CF000A46B03D0A32B000EA423A25102E10E0E7D
:100D0000A26FE552E552E7CFD9FF1200D9CFE6FF37
:100D1000E1CFD9FFE6520001A351A4113DE18A9C25
:100D2000DF6A080EDF5C35E28A98DC0E136E1E0E59
:100D3000146E000E156EA2C016F0176A186A030E24
:100D4000D890163617361836E806FAE113501624EE
:100D5000106E14501720116E15501820126EDFCF30
:100D600019F01A6A1B6A10501924F36E11501A20D8
:100D7000F46E12501B20F86EF4CFF7FFF3CFF6FF9E
:100D80000800F550E8B08A8AE8A08A9A8A88DF2AA3
:100D9000C8D78A8C0001A207A43504E2A351320807
:100DA000000EA45503E2A36BA46B03D0A32B000E8B
:100DB000A423A25102E10E0EA26FE552E552E7CF45
:100DC000D9FF1200D9CFE6FFE1CFD9FFE6528A9CC6
:100DD000DF6A080EDF5C05E28A988A8A8A88DF2A41
:100DE000F8D78A8CE552E552E7CFD9FF1200D9CF68
:100DF000E6FFE1CFD9FFE65200019751981107E1D4
:100E0000915101E1DFDF0001910501E130DDE80EE4
:100E10000001971902E1030E981908E1976B986B8E
:100E2000912B9151010801E2916B03D0972B000E99
:100E30009823E552E552E7CFD9FF1200D9CFE6FF5C
:100E4000E1CFD9FFE652000199519A1107E1925181
:100E500001E1B8DF0001920501E109DD00019D51CA
:100E6000991902E19E519A193FE1996B9A6B922B65
:100E70009251010838E2926BF40ED8809D55010E14
:100E80009E5504E21E0E9D5F000E9E5B2C0ED880C8
:100E90009D55010E9E5509E2F40E9D5D010E9E5971
:100EA00004E2140E9D5F000E9E5B640ED8809D557B
:100EB000000E9E5509E22C0E9D5D010E9E5904E226
:100EC0000A0E9D5F000E9E5B080ED8809D55000E99
:100ED0009E5509E2640E9D5D000E9E5904E2030ECC
:100EE0009D5F000E9E5B03D0992B000E9A23E55266
:100EF000E552E7CFD9FF1200D9CFE6FFE1CFD9FF06
:100F0000020EE126DE6ADD6ADECF10F0DDCF11F0E1
:100F1000D890115004E6C80E105C000E115805E27E
:100F2000DF2A010E01E3DB2AEFD7020EE15C02E2C9
:0E0F3000E16AE552E16EE552E7CFD9FF12000B
:020F3E0059D880
:100F400089D882AC48D00001666B676B686B696BAF
:100F5000060E106E10C00CF060C007F078EC10F0B8
:100F60000350050A35E0010A2EE0070A19E0010ADC
:100F700012E0030A0AE0010A01E02DD03AD80F0E70
:100F8000E66E4DEC04F0E55226D08B829EEC0AF022
:100F9000F7EC06F020D01EEC07F015EC0BF01BD0A0
:100FA0000001615102E18B8268D80001610503E113
:100FB0008B92E0EC04F0020E0001615D03E18B9284
:100FC0004DEC05F008D0CFEC05F02DEC0AF003D085
:100FD00074EC05F000D02EEC0EF0BBC07AF0BCC073
:100FE0007BF0BDC07CF0BEC07DF0CBEC0EF0A8D78E
:100FF000120094928B92948C938E0001606B616BC3
:10100000626B636B646B656B0001070EA06F000180
:10101000666B676B686B696B7A6B7B6B7C6B7D6BEC
:10102000766B776B786B796B726B736B746B756BBC
:101030006A6B6B6B6C6B6D6B6E6B6F6B706B716BEC
:1010400016EC04F016EC0AF0C5EC0EF013EC0EF002
:1010500065EF0CF082BC10D00001662B000E6723F8
:10106000682369231E0E661905E1675103E1685183
:1010700001E1695101E1602B120000017B3504E2BE
:101080007A51F408010E7B5506E26A2B000E6B23A1
:101090006C236D2304D06A6B6B6B6C6B6D6B7D3551
:1010A00004E27C511208020E7D5506E26E2B000E02
:1010B0006F237023712304D06E6B6F6B706B716B39
:1010C000640E6A1905E16B5103E16C5101E16D5148
:1010D00007E16A6B6B6B6C6B6D6B762B000E772385
:1010E000640E6E1905E16F5103E1705101E1715118
:1010F00007E16E6B6F6B706B716B782B000E792351
:10110000050E761901E1775105E1766B776B722B4D
:10111000000E7323050E781901E1795105E1786B12
:10112000796B742B000E752300019F5100084CE26F
:101130000E0E9F5D49E200017251745D106E755193
:101140007355116E070E102400019F6F9FC0E6FFBC
:101150004DEC04F0E55200019F510001A05D06E254
:10116000010E0001626F636B646B656B00019F5140
:101170000001D880A05506E2010E0001646F656B86
:10118000626B636B0001010E621901E1635109E1B9
:101190006451651106E1E66AE66AC7EC0DF0E552B6
:1011A000E5520001010E641901E165510AE1625145
:1011B000631107E1010EE66EE66AC7EC0DF0E55239
:1011C000E5529FC0A0F015D00E0E9F5D08E10E0EF7
:1011D000E66E4DEC04F0E5520001010E616F000176
:1011E0009F5107E1E66A4DEC04F0E5520001020E62
:1011F000616F1200C1C07EF0C2C07FF00001875154
:101200008319E8AE02D0833504D08251865D8351C4
:1012100087590DE27F518319E8AE02D0833504D09F
:1012200082517E5D83517F5902E282C08AF082C082
:1012300086F083C087F07EC082F07FC083F0C3C099
:1012400080F0C4C081F089518519E8AE02D085359F
:1012500004D08451885D855189590DE281518519E9
:10126000E8AE02D0853504D08451805D8551815926
:1012700002E284C08BF084C088F085C089F080C011
:1012800084F081C085F08B518A5D8C6F000EE76E13
:101290008C19E8AE02D08C3503D0E750D8808C553D
:1012A00046E2050EE76E8C19E8AE02D08C3503D00D
:1012B000E750D8808C5503E2050E8D2737D0040EF9
:1012C000E76E8C19E8AE02D08C3503D0E750D88099
:1012D0008C5503E2040E8D2729D0030EE76E8C197E
:1012E000E8AE02D08C3503D0E750D8808C5503E2AD
:1012F000030E8D271BD0020EE76E8C19E8AE02D0CC
:101300008C3503D0E750D8808C5503E2020E8D2730
:101310000DD0010EE76E8C19E8AE02D08C3503D0EB
:10132000E750D8808C5502E28D2B00D046D08C6DD2
:10133000050EE76E8C19E8AE02D08C3503D0E7506D
:10134000D8808C5503E2050E8E2737D0040EE76E49
:101350008C19E8AE02D08C3503D0E750D8808C557C
:1013600003E2040E8E2729D0030EE76E8C19E8AE37
:1013700002D08C3503D0E750D8808C5503E2030EA1
:101380008E271BD0020EE76E8C19E8AE02D08C358A
:1013900003D0E750D8808C5503E2020E8E270DD083
:1013A000010EE76E8C19E8AE02D08C3503D0E75001
:1013B000D8808C5502E28E2B00D00A0E8D5D02E3A0
:1013C0000A0E8D5F0A0E8E5D02E30A0E8E5F12001A
:1013D000D9CFE6FFE1CFD9FF020EE126DE6ADD6A52
:1013E000DECF10F0DDCF11F0FD0EDBCF12F0FE0EE0
:1013F000DBCF13F011501318E8AE02D0133404D031
:101400001250105C1350115807E2CBEC0EF0DF2A9B
:10141000010E01E3DB2AE4D7020EE15C02E2E16A9D
:0C142000E552E16EE552E7CFD9FF120063
:04142C009294899479
:101430000001A56BA66BA76BAC6BAD6BAE6BAF6B16
:10144000B06BAA6BAB6BB36BB46BB56BB66BB76BB6
:10145000B86BB96BB16BB26B12004B0E0001A7AF4A
:1014600002D0D89003D0A65D000EA75904E2050E65
:10147000A86FA96B50D07D0EA7AF02D0D89003D033
:10148000A65D000EA75904E20A0EA86FA96B43D00F
:10149000C80EA7AF02D0D89003D0A65D000EA75902
:1014A00004E20F0EA86FA96B36D0FA0EA7AF02D0D8
:1014B000D89003D0A65D000EA75904E2030EA86FD2
:1014C000A96B29D07D0EA7AF02D0D89003D0A65D1E
:1014D000000EA75904E2050EA86FA96B1CD0C80E18
:1014E000A7AF02D0D89003D0A65D000EA75904E2A2
:1014F000070EA86FA96B0FD0FA0EA7AF02D0D89035
:1015000003D0A65D000EA75904E20A0EA86FA96BCE
:1015100002D0A66BA76BA55104E18974A62B000E1F
:10152000A723A551106E116AA851101802E1A95104
:10153000111802E1A56B01D0A52B12000001D89073
:10154000AB5104E6F40EAA5D010EAB5903E2AD51B6
:1015500001E18974AB3504E2AA51BC08020EAB5517
:101560000BE2D890AB5104E6E80EAA5D030EAB592E
:1015700003E2AE5101E18974AB3504E2AA51E808F7
:10158000030EAB550BE2D890AB5104E6D00EAA5D2A
:10159000070EAB5903E2AF5101E18974AB3504E2A8
:1015A000AA51B8080B0EAB5503E2B05101E18974A2
:1015B000AB3504E2AA51F408010EAB550BE2D8900A
:1015C000AB5104E6580EAA5D020EAB5903E2AC51D2
:1015D00001E18974A00EAA1902E10F0EAB1903E113
:1015E000AA6BAB6B03D0AA2B000EAB23050EAC5D30
:1015F00002E1AC6B01D0AC2B070EAD5D02E1AD6B2F
:1016000001D0AD2B0A0EAE5D02E1AE6B01D0AE2B68
:101610000D0EAF5D02E1AF6B01D0AF2B0D0EB05DD3
:1016200002E1B06B01D0B02B12000001D890B25192
:1016300004E6E80EB15D030EB25903E2B75101E1D1
:101640008974B23504E2B151E808030EB2550BE2D9
:10165000D890B25104E6D00EB15D070EB25903E244
:10166000B65101E18974B23504E2B151D008070ED8
:10167000B2550BE2D890B25104E6B80EB15D0B0E34
:10168000B25903E2B55101E18974B23504E2B151B6
:10169000B8080B0EB2550BE2D890B25104E6A00E7A
:1016A000B15D0F0EB25903E2B75101E18974B23551
:1016B00004E2B151A0080F0EB2550BE2D890B2511E
:1016C00004E6880EB15D130EB25903E2B55101E193
:1016D0008974B23504E2B1518808130EB2550BE299
:1016E000D890B25104E6700EB15D170EB25903E204
:1016F000B45101E18974B23504E2B1517008170E9A
:10170000B2550BE2D890B25104E6580EB15D1B0EF3
:10171000B25903E2B35101E18974B23504E2B15127
:1017200040081F0EB2550BE2D890B25104E6340EB9
:10173000B15D210EB25903E2B35101E18974B235B2
:1017400004E2B1513408210EB2550BE2D890B251E7
:1017500004E6280EB15D230EB25903E2B85101E14F
:101760008974B23504E2B1512808230EB2550BE258
:10177000D890B25104E61C0EB15D250EB25903E2B9
:10178000B35101E18974B23504E2B1511C08250E50
:10179000B2550BE2D890B25104E6100EB15D270E9F
:1017A000B25903E2B45101E18974B23504E2B15196
:1017B0001008270EB2550BE2D890B25104E6F80E8D
:1017C000B15D2A0EB25903E2B55101E18974B23517
:1017D00004E2B151F8082A0EB2550BE2D890B2518A
:1017E00004E6E00EB15D2E0EB25903E2B75101E1FD
:1017F0008974B23504E2B151D408300EB2550BE20F
:10180000D890B25104E6BC0EB15D340EB25903E279
:10181000B75101E18974B23504E2B151BC08340E0C
:10182000B2550BE2D890B25104E6A40EB15D380E69
:10183000B25903E2B95101E18974B23504E2B15100
:10184000A408380EB2550BE2D890B25104E6800ECF
:10185000B15D3E0EB25903E2B75101E18974200E29
:10186000B11902E14E0EB21903E1B16BB26B03D0B4
:10187000B12B000EB223030EB35D02E1B36B01D0B6
:10188000B32B050EB45D02E1B46B01D0B42B070E8F
:10189000B55D02E1B56B01D0B52B0A0EB65D02E174
:1018A000B66B01D0B62B0D0EB75D02E1B76B01D060
:1018B000B72BB80502E1B86B01D0B82B110EB95D9A
:0A18C00002E1B96B01D0B92B120050
:0618CA00D9CFE6FFE1CFDB
:1018D000D9FF020EE126DE6ADD6ADECF10F0DDCF31
:1018E00011F0113404E210500008000E11541EE3F0
:1018F000DECFE9FFDDCFEAFFD890E936EA36CF0E3A
:10190000E926000EEA22EF6ADECFE9FFDDCFEAFF2B
:10191000D890E936EA36CF0EE926000EEA22EE52DA
:10192000EF6ADF2A010E01E3DB2AD7D79390939267
:1019300093949396E50EE66EE5EC0FF0E552F28E89
:10194000F28C020EE15C02E2E16AE552E16EE552E0
:10195000E7CFD9FF1200D9CFE6FFE1CFD9FF020EC2
:10196000E126DE6ADD6ADECF10F0DDCF11F0D8901F
:10197000115004E6010E105C000E115801E3C9D0AD
:10198000DECFE9FFDDCFEAFFD890E936EA36CF0EA9
:10199000E926000EEA22EF0455E1DECFE9FFDDCFB4
:1019A000EAFFD890E936EA36CF0EE926000EEA22A1
:1019B000EE52EF500FE1DECFE9FFDDCFEAFFD89026
:1019C000E936EA36CF0EE926000EEA22EE52060E7E
:1019D000EF6E37D0DECFE9FFDDCFEAFFD890E936F2
:1019E000EA36CF0EE926000EEA22EE52EF506008EA
:1019F0001AE1DECFE9FFDDCFEAFFD890E936EA361B
:101A0000CF0EE926000EEA22EE52EF6ADECFE9FFA2
:101A1000DDCFEAFFD890E936EA36CF0EE926000E90
:101A2000EA22EF6A0ED0DECFE9FFDDCFEAFFD890E1
:101A3000E936EA36CF0EE926000EEA22EE52EF9E94
:101A4000EF4662D0DECFE9FFDDCFEAFFD890E9367E
:101A5000EA36CF0EE926000EEA22EF50020854E1E2
:101A6000DECFE9FFDDCFEAFFD890E936EA36CF0EC8
:101A7000E926000EEA22EE52EF500FE1DECFE9FF39
:101A8000DDCFEAFFD890E936EA36CF0EE926000E20
:101A9000EA22EE52600EEF6E37D0DECFE9FFDDCFE7
:101AA000EAFFD890E936EA36CF0EE926000EEA22A0
:101AB000EE52EF5006081AE1DECFE9FFDDCFEAFF74
:101AC000D890E936EA36CF0EE926000EEA22EE5229
:101AD000EF6ADECFE9FFDDCFEAFFD890E936EA36DC
:101AE000CF0EE926000EEA22EF6A0ED0DECFE9FF24
:101AF000DDCFEAFFD890E936EA36CF0EE926000EB0
:101B0000EA22EE52EF90EF42DF2A010E01E3DB2AD8
:101B10002AD7040E0001D015000802E3000E01D000
:101B2000010EE8B08A80E8A08A90080ED01500085F
:101B300002E3000E01D0010EE8B08A82E8A08A928A
:101B4000100ED015000802E3000E01D0010EE8B01F
:101B50008A84E8A08A94200ED015000802E3000EC3
:101B600001D0010EE8B08A86E8A08A96E66A400EA7
:101B7000E66E06EC10F0E552E552020EE15C02E280
:101B8000E16AE552E16EE552E7CFD9FF1200D9CF05
:101B9000E6FFE1CFD9FFFE0EDBCF10F010343FE2BD
:101BA000FE0EDBCF11F0010EE76E1118E8AE02D089
:101BB000113403D0E750D880115431E3FE0EDBCF4F
:101BC000E9FFEA6AE9BEEA68D890E936EA36CF0E5C
:101BD000E926000EEA22EF5022E1FD0EDB0410E1BF
:101BE000FE0EDBCFE9FFEA6AE9BEEA68D890E93683
:101BF000EA36CF0EE926000EEA22010EEF6E0FD074
:101C0000FE0EDBCFE9FFEA6AE9BEEA68D890E93662
:101C1000EA36CF0EE926000EEA22020EEF6EE552FA
:061C2000E7CFD9FF12001E
:0A1C26009280928292949296929A14
:101C30000D0EE66E040EE66EE90EE66EAEEC0FF0EB
:101C4000E552E552E5520001BA6BBB6BBC6BBD6B54
:101C5000BE6BC16BC26BC36BC46B12000001BA5187
:101C60000A0A01E17FD0030A01E177D0010A63E0AB
:101C70000F0A5CE0010A48E0030A41E0010A2DE096
:101C8000070A26E0010A12E0030A0BE0010A01E05C
:101C90007BD0870EE66E3EEC10F0E5520001BA2BC9
:101CA00073D09BEC10F00001BA2B6ED096EC10F0C4
:101CB00000090DE186EC10F0F3CFBBF0F4CFBCF0DF
:101CC0008F0EE66E3EEC10F0E5520001BA2B5CD0B0
:101CD0009BEC10F00001BA2B57D096EC10F00009E5
:101CE0000DE186EC10F0F3CFBDF0F4CFBEF0970E0F
:101CF000E66E3EEC10F0E5520001BA2B45D09BECAD
:101D000010F00001BA2B40D096EC10F000090DE164
:101D100086EC10F0F3CFBFF0F4CFC0F09F0EE66E6C
:101D20003EEC10F0E5520001BA2B2ED09BEC10F0E7
:101D30000001BA2B29D096EC10F000090DE186ECD9
:101D400010F0F3CFC1F0F4CFC2F0A70EE66E3EEC78
:101D500010F0E5520001BA2B17D09BEC10F00001F7
:101D6000BA2B12D096EC10F000090DE186EC10F0C1
:101D7000F3CFC3F0F4CFC4F0870EE66E3EEC10F064
:0A1D8000E5520001BA6B00D012001A
:061D8A00530EE66E22EC90
:101D900010F0E5521200F2B402D00000FCD7F29429
:101DA0001200DACFE4FFE2CFDAFFE9CFE4FFEACFB7
:101DB000E4FFF6CFE4FFF7CFE4FFF5CFE4FFF3CF86
:101DC000E4FFF4CFE4FFFACFE4FF00EE00F0100EE2
:101DD000E80403E3EECFE4FFFBD700EE10F00C0EB7
:101DE000E80403E3EECFE4FFFBD7E6529EA003D066
:101DF000ABEC0CF09E90E55200EE1BF00C0EE804EC
:101E000003E3E5CFEDFFFBD700EE0FF0100EE80483
:101E100003E3E5CFEDFFFBD7E5CFFAFFE5CFF4FF16
:101E2000E5CFF3FFE5CFF5FFE5CFF7FFE5CFF6FF11
:0E1E3000E5CFEAFFE5CFE9FFE5CFDAFF1100CD
:021E3E002A0E6A
:101E4000F66E080EF76E000EF86E00010900F550F0
:101E5000CA6F0900F550CB6F03E1CA6701D03DD0CE
:101E60000900F550C56F0900F550C66F0900F5501F
:101E7000C76F09000900F550E96E0900F550EA6ED8
:101E8000090009000900F550C86F0900F550C96F35
:101E900009000900F6CFCCF0F7CFCDF0F8CFCEF0A7
:101EA000C5C0F6FFC6C0F7FFC7C0F8FF0001C853A2
:101EB00002E1C95307E00900F550EE6EC807F8E2E9
:101EC000C907F9D7CCC0F6FFCDC0F7FFCEC0F8FFE9
:0C1ED0000001CA07000ECB5BBFD7120058
:041EDC000000000101
:101EE00000000001000000010000010000000001EE
:101EF00000010000000000010100000000000100DE
:101F000000000001000001000000010000000100CD
:101F100000010000000001000100000000010000BD
:101F200000000100000100000001000000010000AD
:101F3000010000000100000000000001010000009D
:101F4000000001000100000000010000010000008D
:0C1F500001000000000100000000000182
:041F5C00D9CFE6FFF4
:101F6000DACFE6FFE1CFD9FFE2CFDAFFC26AC06A7B
:101F7000FC0EDB407F0B3C0BC26EFB0EDBCFE6FFA3
:101F8000FC0EDB38F00B300BE552E710C16EFD0E96
:101F9000DB50040DF350380B116EFD0EDB380F0BC8
:101FA000070B106EFD0EDB50800B10101110C06E71
:101FB000FC0EDBAE03D09E9C9D8CF28CC280E55261
:0A1FC000E5CFDAFFE7CFD9FF1200EA
:061FCA00D9CFE6FFDACFDB
:101FD000E6FFE1CFD9FFE2CFDAFFFD0EDB507E0B4B
:101FE000CD6EFD0EDBAC02D0CD8E01D0CD9ECF6A82
:101FF000CE6A9E90DBAE02D09D8001D09D90CD80B8
:0C200000E552E5CFDAFFE7CFD9FF120070
:04200C00D9CFE6FF43
:10201000DACFE6FFE1CFD9FFE2CFDAFFE652E652B0
:10202000FC0EDBCFDEFFDBCFDDFF010EDB50CF6E22
:10203000DF50CE6EE552E552E552E5CFDAFFE7CF4D
:04204000D9FF1200B2
:0C204400D9CFE6FFDACFE6FFE1CFD9FFED
:10205000E2CFDAFFFD0EDB507F0BD56ED76AD66A72
:10206000F294FD0EDBAE02D0F28A01D0F29AD58E48
:0C207000E552E5CFDAFFE7CFD9FF120000
:04207C00D9CFE6FFD3
:10208000DACFE6FFE1CFD9FFE2CFDAFFC30EC21409
:10209000106EFD0EDB407F0B3C0B1010C26EE55244
:0A20A000E5CFDAFFE7CFD9FF120009
:0620AA000001D16B020EE3
:1020B000D26F8A9E939E12000001D151D12B0A0843
:1020C00001E2D16BD151D880D25502E28A8E01D083
:0420D0008A9E1200D2
:0C20D40013EE00F023EE00F0F86A0F9C01
:1020E0001FEC0FF09DEC10F09FEC07F0FBD71200F7
:1020F000036A080EE76ED890073603360C50035C6F
:0C21000002E3036E072AE72EF7D7120057
:04210C00C450136E3A
:0E211000126AC3501210F36E13C0F4FF1200D7
:02211E0000EED1
:0C21200000F00F0EEE6AEA62FDD712001C
:04212C00C250020B90
:0621300001E0010E1200A7
:04213600C28212004F
:02213A00120091
:00000001FF
